{"project/contracts/RewardVault.sol":{"RewardVault":{"abi":[{"inputs":[{"internalType":"address","name":"_rewardToken","type":"address"},{"internalType":"address","name":"_waveAdmin","type":"address"}],"stateMutability":"nonpayable","type":"constructor"},{"inputs":[],"name":"AlreadyClaimed","type":"error"},{"inputs":[],"name":"NotWaveAdmin","type":"error"},{"inputs":[{"internalType":"address","name":"owner","type":"address"}],"name":"OwnableInvalidOwner","type":"error"},{"inputs":[{"internalType":"address","name":"account","type":"address"}],"name":"OwnableUnauthorizedAccount","type":"error"},{"inputs":[{"internalType":"address","name":"token","type":"address"}],"name":"SafeERC20FailedOperation","type":"error"},{"inputs":[],"name":"WaveNotFinalized","type":"error"},{"inputs":[],"name":"ZeroPoints","type":"error"},{"inputs":[],"name":"ZeroPool","type":"error"},{"anonymous":false,"inputs":[{"indexed":true,"internalType":"address","name":"previousOwner","type":"address"},{"indexed":true,"internalType":"address","name":"newOwner","type":"address"}],"name":"OwnershipTransferred","type":"event"},{"anonymous":false,"inputs":[{"indexed":true,"internalType":"address","name":"user","type":"address"},{"indexed":false,"internalType":"uint256","name":"amount","type":"uint256"}],"name":"RewardClaimed","type":"event"},{"anonymous":false,"inputs":[{"indexed":true,"internalType":"address","name":"newAdmin","type":"address"}],"name":"WaveAdminUpdated","type":"event"},{"anonymous":false,"inputs":[{"indexed":false,"internalType":"uint256","name":"totalPool","type":"uint256"},{"indexed":false,"internalType":"uint256","name":"totalPoints","type":"uint256"}],"name":"WaveFinalized","type":"event"},{"inputs":[{"internalType":"uint256","name":"_userPoints","type":"uint256"}],"name":"calculateShare","outputs":[{"internalType":"uint256","name":"","type":"uint256"}],"stateMutability":"view","type":"function"},{"inputs":[{"internalType":"address","name":"_user","type":"address"},{"internalType":"uint256","name":"_userPoints","type":"uint256"}],"name":"claimReward","outputs":[],"stateMutability":"nonpayable","type":"function"},{"inputs":[{"internalType":"address","name":"","type":"address"}],"name":"claimed","outputs":[{"internalType":"bool","name":"","type":"bool"}],"stateMutability":"view","type":"function"},{"inputs":[{"internalType":"uint256","name":"_amount","type":"uint256"}],"name":"deposit","outputs":[],"stateMutability":"nonpayable","type":"function"},{"inputs":[{"internalType":"uint256","name":"_totalPoints","type":"uint256"}],"name":"finalizeWave","outputs":[],"stateMutability":"nonpayable","type":"function"},{"inputs":[],"name":"owner","outputs":[{"internalType":"address","name":"","type":"address"}],"stateMutability":"view","type":"function"},{"inputs":[],"name":"renounceOwnership","outputs":[],"stateMutability":"nonpayable","type":"function"},{"inputs":[],"name":"resetWave","outputs":[],"stateMutability":"nonpayable","type":"function"},{"inputs":[],"name":"rewardToken","outputs":[{"internalType":"contract IERC20","name":"","type":"address"}],"stateMutability":"view","type":"function"},{"inputs":[{"internalType":"address","name":"_newAdmin","type":"address"}],"name":"setWaveAdmin","outputs":[],"stateMutability":"nonpayable","type":"function"},{"inputs":[],"name":"totalPointsAwarded","outputs":[{"internalType":"uint256","name":"","type":"uint256"}],"stateMutability":"view","type":"function"},{"inputs":[],"name":"totalWavePool","outputs":[{"internalType":"uint256","name":"","type":"uint256"}],"stateMutability":"view","type":"function"},{"inputs":[{"internalType":"address","name":"newOwner","type":"address"}],"name":"transferOwnership","outputs":[],"stateMutability":"nonpayable","type":"function"},{"inputs":[],"name":"waveAdmin","outputs":[{"internalType":"address","name":"","type":"address"}],"stateMutability":"view","type":"function"},{"inputs":[],"name":"waveFinalized","outputs":[{"internalType":"bool","name":"","type":"bool"}],"stateMutability":"view","type":"function"}],"evm":{"bytecode":{"linkReferences":{},"object":"60a060405234801562000010575f80fd5b506040516200122d3803806200122d83398181016040528101906200003691906200025e565b335f73ffffffffffffffffffffffffffffffffffffffff168173ffffffffffffffffffffffffffffffffffffffff1603620000aa575f6040517f1e4fbdf7000000000000000000000000000000000000000000000000000000008152600401620000a19190620002b4565b60405180910390fd5b620000bb816200013860201b60201c565b508173ffffffffffffffffffffffffffffffffffffffff1660808173ffffffffffffffffffffffffffffffffffffffff16815250508060015f6101000a81548173ffffffffffffffffffffffffffffffffffffffff021916908373ffffffffffffffffffffffffffffffffffffffff1602179055505050620002cf565b5f805f9054906101000a900473ffffffffffffffffffffffffffffffffffffffff169050815f806101000a81548173ffffffffffffffffffffffffffffffffffffffff021916908373ffffffffffffffffffffffffffffffffffffffff1602179055508173ffffffffffffffffffffffffffffffffffffffff168173ffffffffffffffffffffffffffffffffffffffff167f8be0079c531659141344cd1fd0a4f28419497f9722a3daafe3b4186f6b6457e060405160405180910390a35050565b5f80fd5b5f73ffffffffffffffffffffffffffffffffffffffff82169050919050565b5f6200022882620001fd565b9050919050565b6200023a816200021c565b811462000245575f80fd5b50565b5f8151905062000258816200022f565b92915050565b5f8060408385031215620002775762000276620001f9565b5b5f620002868582860162000248565b9250506020620002998582860162000248565b9150509250929050565b620002ae816200021c565b82525050565b5f602082019050620002c95f830184620002a3565b92915050565b608051610f37620002f65f395f81816105c00152818161073a01526108d40152610f375ff3fe608060405234801561000f575f80fd5b50600436106100f3575f3560e01c8063be54185d11610095578063ef04407811610064578063ef04407814610249578063f04227d314610253578063f2fde38b14610271578063f7c618c11461028d576100f3565b8063be54185d146101ad578063c884ef83146101cb578063cae1ab97146101fb578063eb6597d91461022b576100f3565b806378c092c9116100d157806378c092c91461013957806380d0847c146101575780638da5cb5b14610173578063b6b55f2514610191576100f3565b806308e3822c146100f7578063174e31c414610113578063715018a61461012f575b5f80fd5b610111600480360381019061010c9190610bf7565b6102ab565b005b61012d60048036038101906101289190610c7c565b610404565b005b610137610658565b005b61014161066b565b60405161014e9190610cd4565b60405180910390f35b610171600480360381019061016c9190610ced565b61067d565b005b61017b61070b565b6040516101889190610d27565b60405180910390f35b6101ab60048036038101906101a69190610bf7565b610732565b005b6101b561079a565b6040516101c29190610d4f565b60405180910390f35b6101e560048036038101906101e09190610ced565b6107a0565b6040516101f29190610cd4565b60405180910390f35b61021560048036038101906102109190610bf7565b6107bd565b6040516102229190610d4f565b60405180910390f35b6102336107f2565b6040516102409190610d27565b60405180910390f35b610251610817565b005b61025b610848565b6040516102689190610d4f565b60405180910390f35b61028b60048036038101906102869190610ced565b61084e565b005b6102956108d2565b6040516102a29190610dc3565b60405180910390f35b60015f9054906101000a900473ffffffffffffffffffffffffffffffffffffffff1673ffffffffffffffffffffffffffffffffffffffff163373ffffffffffffffffffffffffffffffffffffffff1614610331576040517f8f7a5b8900000000000000000000000000000000000000000000000000000000815260040160405180910390fd5b5f810361036a576040517f6abb5ca500000000000000000000000000000000000000000000000000000000815260040160405180910390fd5b5f600254036103a5576040517fd0d6cb3200000000000000000000000000000000000000000000000000000000815260040160405180910390fd5b80600381905550600160045f6101000a81548160ff0219169083151502179055507fb8c77e6e683bb4fb12c00c33a052a577ffd995b6cb23976b28f9f2a471dba631600254826040516103f9929190610ddc565b60405180910390a150565b60015f9054906101000a900473ffffffffffffffffffffffffffffffffffffffff1673ffffffffffffffffffffffffffffffffffffffff163373ffffffffffffffffffffffffffffffffffffffff161461048a576040517f8f7a5b8900000000000000000000000000000000000000000000000000000000815260040160405180910390fd5b60045f9054906101000a900460ff166104cf576040517f59f7130e00000000000000000000000000000000000000000000000000000000815260040160405180910390fd5b60055f8373ffffffffffffffffffffffffffffffffffffffff1673ffffffffffffffffffffffffffffffffffffffff1681526020019081526020015f205f9054906101000a900460ff1615610550576040517f646cf55800000000000000000000000000000000000000000000000000000000815260040160405180910390fd5b600160055f8473ffffffffffffffffffffffffffffffffffffffff1673ffffffffffffffffffffffffffffffffffffffff1681526020019081526020015f205f6101000a81548160ff0219169083151502179055505f6105af826107bd565b90505f8111156106055761060483827f000000000000000000000000000000000000000000000000000000000000000073ffffffffffffffffffffffffffffffffffffffff166108f69092919063ffffffff16565b5b8273ffffffffffffffffffffffffffffffffffffffff167f106f923f993c2149d49b4255ff723acafa1f2d94393f561d3eda32ae348f72418260405161064b9190610d4f565b60405180910390a2505050565b610660610949565b6106695f6109d0565b565b60045f9054906101000a900460ff1681565b610685610949565b8060015f6101000a81548173ffffffffffffffffffffffffffffffffffffffff021916908373ffffffffffffffffffffffffffffffffffffffff1602179055508073ffffffffffffffffffffffffffffffffffffffff167f618da7d07f45545e460914744a289074460c26ad655a3ead2d286ddde709f0f160405160405180910390a250565b5f805f9054906101000a900473ffffffffffffffffffffffffffffffffffffffff16905090565b61077f3330837f000000000000000000000000000000000000000000000000000000000000000073ffffffffffffffffffffffffffffffffffffffff16610a91909392919063ffffffff16565b8060025f8282546107909190610e30565b9250508190555050565b60025481565b6005602052805f5260405f205f915054906101000a900460ff1681565b5f80600354036107cf575f90506107ed565b600354600254836107e09190610e63565b6107ea9190610ed1565b90505b919050565b60015f9054906101000a900473ffffffffffffffffffffffffffffffffffffffff1681565b61081f610949565b5f6002819055505f6003819055505f60045f6101000a81548160ff021916908315150217905550565b60035481565b610856610949565b5f73ffffffffffffffffffffffffffffffffffffffff168173ffffffffffffffffffffffffffffffffffffffff16036108c6575f6040517f1e4fbdf70000000000000000000000000000000000000000000000000000000081526004016108bd9190610d27565b60405180910390fd5b6108cf816109d0565b50565b7f000000000000000000000000000000000000000000000000000000000000000081565b6109038383836001610ae6565b61094457826040517f5274afe700000000000000000000000000000000000000000000000000000000815260040161093b9190610d27565b60405180910390fd5b505050565b610951610b48565b73ffffffffffffffffffffffffffffffffffffffff1661096f61070b565b73ffffffffffffffffffffffffffffffffffffffff16146109ce57610992610b48565b6040517f118cdaa70000000000000000000000000000000000000000000000000000000081526004016109c59190610d27565b60405180910390fd5b565b5f805f9054906101000a900473ffffffffffffffffffffffffffffffffffffffff169050815f806101000a81548173ffffffffffffffffffffffffffffffffffffffff021916908373ffffffffffffffffffffffffffffffffffffffff1602179055508173ffffffffffffffffffffffffffffffffffffffff168173ffffffffffffffffffffffffffffffffffffffff167f8be0079c531659141344cd1fd0a4f28419497f9722a3daafe3b4186f6b6457e060405160405180910390a35050565b610a9f848484846001610b4f565b610ae057836040517f5274afe7000000000000000000000000000000000000000000000000000000008152600401610ad79190610d27565b60405180910390fd5b50505050565b5f8063a9059cbb60e01b9050604051815f525f1960601c86166004528460245260205f60445f808b5af1925060015f51148316610b3a578383151615610b2e573d5f823e3d81fd5b5f873b113d1516831692505b806040525050949350505050565b5f33905090565b5f806323b872dd60e01b9050604051815f525f1960601c87166004525f1960601c86166024528460445260205f60645f808c5af1925060015f51148316610bad578383151615610ba1573d5f823e3d81fd5b5f883b113d1516831692505b806040525f606052505095945050505050565b5f80fd5b5f819050919050565b610bd681610bc4565b8114610be0575f80fd5b50565b5f81359050610bf181610bcd565b92915050565b5f60208284031215610c0c57610c0b610bc0565b5b5f610c1984828501610be3565b91505092915050565b5f73ffffffffffffffffffffffffffffffffffffffff82169050919050565b5f610c4b82610c22565b9050919050565b610c5b81610c41565b8114610c65575f80fd5b50565b5f81359050610c7681610c52565b92915050565b5f8060408385031215610c9257610c91610bc0565b5b5f610c9f85828601610c68565b9250506020610cb085828601610be3565b9150509250929050565b5f8115159050919050565b610cce81610cba565b82525050565b5f602082019050610ce75f830184610cc5565b92915050565b5f60208284031215610d0257610d01610bc0565b5b5f610d0f84828501610c68565b91505092915050565b610d2181610c41565b82525050565b5f602082019050610d3a5f830184610d18565b92915050565b610d4981610bc4565b82525050565b5f602082019050610d625f830184610d40565b92915050565b5f819050919050565b5f610d8b610d86610d8184610c22565b610d68565b610c22565b9050919050565b5f610d9c82610d71565b9050919050565b5f610dad82610d92565b9050919050565b610dbd81610da3565b82525050565b5f602082019050610dd65f830184610db4565b92915050565b5f604082019050610def5f830185610d40565b610dfc6020830184610d40565b9392505050565b7f4e487b71000000000000000000000000000000000000000000000000000000005f52601160045260245ffd5b5f610e3a82610bc4565b9150610e4583610bc4565b9250828201905080821115610e5d57610e5c610e03565b5b92915050565b5f610e6d82610bc4565b9150610e7883610bc4565b9250828202610e8681610bc4565b91508282048414831517610e9d57610e9c610e03565b5b5092915050565b7f4e487b71000000000000000000000000000000000000000000000000000000005f52601260045260245ffd5b5f610edb82610bc4565b9150610ee683610bc4565b925082610ef657610ef5610ea4565b5b82820490509291505056fea2646970667358221220639c38a11624df9db262438381379ca2cf8b2ff029a5498dd5fc48ec2b33e74a64736f6c63430008140033","opcodes":"PUSH1 0xA0 PUSH1 0x40 MSTORE CALLVALUE DUP1 ISZERO PUSH3 0x10 JUMPI PUSH0 DUP1 REVERT JUMPDEST POP PUSH1 0x40 MLOAD PUSH3 0x122D CODESIZE SUB DUP1 PUSH3 0x122D DUP4 CODECOPY DUP2 DUP2 ADD PUSH1 0x40 MSTORE DUP2 ADD SWAP1 PUSH3 0x36 SWAP2 SWAP1 PUSH3 0x25E JUMP JUMPDEST CALLER PUSH0 PUSH20 0xFFFFFFFFFFFFFFFFFFFFFFFFFFFFFFFFFFFFFFFF AND DUP2 PUSH20 0xFFFFFFFFFFFFFFFFFFFFFFFFFFFFFFFFFFFFFFFF AND SUB PUSH3 0xAA JUMPI PUSH0 PUSH1 0x40 MLOAD PUSH32 0x1E4FBDF700000000000000000000000000000000000000000000000000000000 DUP2 MSTORE PUSH1 0x4 ADD PUSH3 0xA1 SWAP2 SWAP1 PUSH3 0x2B4 JUMP JUMPDEST PUSH1 0x40 MLOAD DUP1 SWAP2 SUB SWAP1 REVERT JUMPDEST PUSH3 0xBB DUP2 PUSH3 0x138 PUSH1 0x20 SHL PUSH1 0x20 SHR JUMP JUMPDEST POP DUP2 PUSH20 0xFFFFFFFFFFFFFFFFFFFFFFFFFFFFFFFFFFFFFFFF AND PUSH1 0x80 DUP2 PUSH20 0xFFFFFFFFFFFFFFFFFFFFFFFFFFFFFFFFFFFFFFFF AND DUP2 MSTORE POP POP DUP1 PUSH1 0x1 PUSH0 PUSH2 0x100 EXP DUP2 SLOAD DUP2 PUSH20 0xFFFFFFFFFFFFFFFFFFFFFFFFFFFFFFFFFFFFFFFF MUL NOT AND SWAP1 DUP4 PUSH20 0xFFFFFFFFFFFFFFFFFFFFFFFFFFFFFFFFFFFFFFFF AND MUL OR SWAP1 SSTORE POP POP POP PUSH3 0x2CF JUMP JUMPDEST PUSH0 DUP1 PUSH0 SWAP1 SLOAD SWAP1 PUSH2 0x100 EXP SWAP1 DIV PUSH20 0xFFFFFFFFFFFFFFFFFFFFFFFFFFFFFFFFFFFFFFFF AND SWAP1 POP DUP2 PUSH0 DUP1 PUSH2 0x100 EXP DUP2 SLOAD DUP2 PUSH20 0xFFFFFFFFFFFFFFFFFFFFFFFFFFFFFFFFFFFFFFFF MUL NOT AND SWAP1 DUP4 PUSH20 0xFFFFFFFFFFFFFFFFFFFFFFFFFFFFFFFFFFFFFFFF AND MUL OR SWAP1 SSTORE POP DUP2 PUSH20 0xFFFFFFFFFFFFFFFFFFFFFFFFFFFFFFFFFFFFFFFF AND DUP2 PUSH20 0xFFFFFFFFFFFFFFFFFFFFFFFFFFFFFFFFFFFFFFFF AND PUSH32 0x8BE0079C531659141344CD1FD0A4F28419497F9722A3DAAFE3B4186F6B6457E0 PUSH1 0x40 MLOAD PUSH1 0x40 MLOAD DUP1 SWAP2 SUB SWAP1 LOG3 POP POP JUMP JUMPDEST PUSH0 DUP1 REVERT JUMPDEST PUSH0 PUSH20 0xFFFFFFFFFFFFFFFFFFFFFFFFFFFFFFFFFFFFFFFF DUP3 AND SWAP1 POP SWAP2 SWAP1 POP JUMP JUMPDEST PUSH0 PUSH3 0x228 DUP3 PUSH3 0x1FD JUMP JUMPDEST SWAP1 POP SWAP2 SWAP1 POP JUMP JUMPDEST PUSH3 0x23A DUP2 PUSH3 0x21C JUMP JUMPDEST DUP2 EQ PUSH3 0x245 JUMPI PUSH0 DUP1 REVERT JUMPDEST POP JUMP JUMPDEST PUSH0 DUP2 MLOAD SWAP1 POP PUSH3 0x258 DUP2 PUSH3 0x22F JUMP JUMPDEST SWAP3 SWAP2 POP POP JUMP JUMPDEST PUSH0 DUP1 PUSH1 0x40 DUP4 DUP6 SUB SLT ISZERO PUSH3 0x277 JUMPI PUSH3 0x276 PUSH3 0x1F9 JUMP JUMPDEST JUMPDEST PUSH0 PUSH3 0x286 DUP6 DUP3 DUP7 ADD PUSH3 0x248 JUMP JUMPDEST SWAP3 POP POP PUSH1 0x20 PUSH3 0x299 DUP6 DUP3 DUP7 ADD PUSH3 0x248 JUMP JUMPDEST SWAP2 POP POP SWAP3 POP SWAP3 SWAP1 POP JUMP JUMPDEST PUSH3 0x2AE DUP2 PUSH3 0x21C JUMP JUMPDEST DUP3 MSTORE POP POP JUMP JUMPDEST PUSH0 PUSH1 0x20 DUP3 ADD SWAP1 POP PUSH3 0x2C9 PUSH0 DUP4 ADD DUP5 PUSH3 0x2A3 JUMP JUMPDEST SWAP3 SWAP2 POP POP JUMP JUMPDEST PUSH1 0x80 MLOAD PUSH2 0xF37 PUSH3 0x2F6 PUSH0 CODECOPY PUSH0 DUP2 DUP2 PUSH2 0x5C0 ADD MSTORE DUP2 DUP2 PUSH2 0x73A ADD MSTORE PUSH2 0x8D4 ADD MSTORE PUSH2 0xF37 PUSH0 RETURN INVALID PUSH1 0x80 PUSH1 0x40 MSTORE CALLVALUE DUP1 ISZERO PUSH2 0xF JUMPI PUSH0 DUP1 REVERT JUMPDEST POP PUSH1 0x4 CALLDATASIZE LT PUSH2 0xF3 JUMPI PUSH0 CALLDATALOAD PUSH1 0xE0 SHR DUP1 PUSH4 0xBE54185D GT PUSH2 0x95 JUMPI DUP1 PUSH4 0xEF044078 GT PUSH2 0x64 JUMPI DUP1 PUSH4 0xEF044078 EQ PUSH2 0x249 JUMPI DUP1 PUSH4 0xF04227D3 EQ PUSH2 0x253 JUMPI DUP1 PUSH4 0xF2FDE38B EQ PUSH2 0x271 JUMPI DUP1 PUSH4 0xF7C618C1 EQ PUSH2 0x28D JUMPI PUSH2 0xF3 JUMP JUMPDEST DUP1 PUSH4 0xBE54185D EQ PUSH2 0x1AD JUMPI DUP1 PUSH4 0xC884EF83 EQ PUSH2 0x1CB JUMPI DUP1 PUSH4 0xCAE1AB97 EQ PUSH2 0x1FB JUMPI DUP1 PUSH4 0xEB6597D9 EQ PUSH2 0x22B JUMPI PUSH2 0xF3 JUMP JUMPDEST DUP1 PUSH4 0x78C092C9 GT PUSH2 0xD1 JUMPI DUP1 PUSH4 0x78C092C9 EQ PUSH2 0x139 JUMPI DUP1 PUSH4 0x80D0847C EQ PUSH2 0x157 JUMPI DUP1 PUSH4 0x8DA5CB5B EQ PUSH2 0x173 JUMPI DUP1 PUSH4 0xB6B55F25 EQ PUSH2 0x191 JUMPI PUSH2 0xF3 JUMP JUMPDEST DUP1 PUSH4 0x8E3822C EQ PUSH2 0xF7 JUMPI DUP1 PUSH4 0x174E31C4 EQ PUSH2 0x113 JUMPI DUP1 PUSH4 0x715018A6 EQ PUSH2 0x12F JUMPI JUMPDEST PUSH0 DUP1 REVERT JUMPDEST PUSH2 0x111 PUSH1 0x4 DUP1 CALLDATASIZE SUB DUP2 ADD SWAP1 PUSH2 0x10C SWAP2 SWAP1 PUSH2 0xBF7 JUMP JUMPDEST PUSH2 0x2AB JUMP JUMPDEST STOP JUMPDEST PUSH2 0x12D PUSH1 0x4 DUP1 CALLDATASIZE SUB DUP2 ADD SWAP1 PUSH2 0x128 SWAP2 SWAP1 PUSH2 0xC7C JUMP JUMPDEST PUSH2 0x404 JUMP JUMPDEST STOP JUMPDEST PUSH2 0x137 PUSH2 0x658 JUMP JUMPDEST STOP JUMPDEST PUSH2 0x141 PUSH2 0x66B JUMP JUMPDEST PUSH1 0x40 MLOAD PUSH2 0x14E SWAP2 SWAP1 PUSH2 0xCD4 JUMP JUMPDEST PUSH1 0x40 MLOAD DUP1 SWAP2 SUB SWAP1 RETURN JUMPDEST PUSH2 0x171 PUSH1 0x4 DUP1 CALLDATASIZE SUB DUP2 ADD SWAP1 PUSH2 0x16C SWAP2 SWAP1 PUSH2 0xCED JUMP JUMPDEST PUSH2 0x67D JUMP JUMPDEST STOP JUMPDEST PUSH2 0x17B PUSH2 0x70B JUMP JUMPDEST PUSH1 0x40 MLOAD PUSH2 0x188 SWAP2 SWAP1 PUSH2 0xD27 JUMP JUMPDEST PUSH1 0x40 MLOAD DUP1 SWAP2 SUB SWAP1 RETURN JUMPDEST PUSH2 0x1AB PUSH1 0x4 DUP1 CALLDATASIZE SUB DUP2 ADD SWAP1 PUSH2 0x1A6 SWAP2 SWAP1 PUSH2 0xBF7 JUMP JUMPDEST PUSH2 0x732 JUMP JUMPDEST STOP JUMPDEST PUSH2 0x1B5 PUSH2 0x79A JUMP JUMPDEST PUSH1 0x40 MLOAD PUSH2 0x1C2 SWAP2 SWAP1 PUSH2 0xD4F JUMP JUMPDEST PUSH1 0x40 MLOAD DUP1 SWAP2 SUB SWAP1 RETURN JUMPDEST PUSH2 0x1E5 PUSH1 0x4 DUP1 CALLDATASIZE SUB DUP2 ADD SWAP1 PUSH2 0x1E0 SWAP2 SWAP1 PUSH2 0xCED JUMP JUMPDEST PUSH2 0x7A0 JUMP JUMPDEST PUSH1 0x40 MLOAD PUSH2 0x1F2 SWAP2 SWAP1 PUSH2 0xCD4 JUMP JUMPDEST PUSH1 0x40 MLOAD DUP1 SWAP2 SUB SWAP1 RETURN JUMPDEST PUSH2 0x215 PUSH1 0x4 DUP1 CALLDATASIZE SUB DUP2 ADD SWAP1 PUSH2 0x210 SWAP2 SWAP1 PUSH2 0xBF7 JUMP JUMPDEST PUSH2 0x7BD JUMP JUMPDEST PUSH1 0x40 MLOAD PUSH2 0x222 SWAP2 SWAP1 PUSH2 0xD4F JUMP JUMPDEST PUSH1 0x40 MLOAD DUP1 SWAP2 SUB SWAP1 RETURN JUMPDEST PUSH2 0x233 PUSH2 0x7F2 JUMP JUMPDEST PUSH1 0x40 MLOAD PUSH2 0x240 SWAP2 SWAP1 PUSH2 0xD27 JUMP JUMPDEST PUSH1 0x40 MLOAD DUP1 SWAP2 SUB SWAP1 RETURN JUMPDEST PUSH2 0x251 PUSH2 0x817 JUMP JUMPDEST STOP JUMPDEST PUSH2 0x25B PUSH2 0x848 JUMP JUMPDEST PUSH1 0x40 MLOAD PUSH2 0x268 SWAP2 SWAP1 PUSH2 0xD4F JUMP JUMPDEST PUSH1 0x40 MLOAD DUP1 SWAP2 SUB SWAP1 RETURN JUMPDEST PUSH2 0x28B PUSH1 0x4 DUP1 CALLDATASIZE SUB DUP2 ADD SWAP1 PUSH2 0x286 SWAP2 SWAP1 PUSH2 0xCED JUMP JUMPDEST PUSH2 0x84E JUMP JUMPDEST STOP JUMPDEST PUSH2 0x295 PUSH2 0x8D2 JUMP JUMPDEST PUSH1 0x40 MLOAD PUSH2 0x2A2 SWAP2 SWAP1 PUSH2 0xDC3 JUMP JUMPDEST PUSH1 0x40 MLOAD DUP1 SWAP2 SUB SWAP1 RETURN JUMPDEST PUSH1 0x1 PUSH0 SWAP1 SLOAD SWAP1 PUSH2 0x100 EXP SWAP1 DIV PUSH20 0xFFFFFFFFFFFFFFFFFFFFFFFFFFFFFFFFFFFFFFFF AND PUSH20 0xFFFFFFFFFFFFFFFFFFFFFFFFFFFFFFFFFFFFFFFF AND CALLER PUSH20 0xFFFFFFFFFFFFFFFFFFFFFFFFFFFFFFFFFFFFFFFF AND EQ PUSH2 0x331 JUMPI PUSH1 0x40 MLOAD PUSH32 0x8F7A5B8900000000000000000000000000000000000000000000000000000000 DUP2 MSTORE PUSH1 0x4 ADD PUSH1 0x40 MLOAD DUP1 SWAP2 SUB SWAP1 REVERT JUMPDEST PUSH0 DUP2 SUB PUSH2 0x36A JUMPI PUSH1 0x40 MLOAD PUSH32 0x6ABB5CA500000000000000000000000000000000000000000000000000000000 DUP2 MSTORE PUSH1 0x4 ADD PUSH1 0x40 MLOAD DUP1 SWAP2 SUB SWAP1 REVERT JUMPDEST PUSH0 PUSH1 0x2 SLOAD SUB PUSH2 0x3A5 JUMPI PUSH1 0x40 MLOAD PUSH32 0xD0D6CB3200000000000000000000000000000000000000000000000000000000 DUP2 MSTORE PUSH1 0x4 ADD PUSH1 0x40 MLOAD DUP1 SWAP2 SUB SWAP1 REVERT JUMPDEST DUP1 PUSH1 0x3 DUP2 SWAP1 SSTORE POP PUSH1 0x1 PUSH1 0x4 PUSH0 PUSH2 0x100 EXP DUP2 SLOAD DUP2 PUSH1 0xFF MUL NOT AND SWAP1 DUP4 ISZERO ISZERO MUL OR SWAP1 SSTORE POP PUSH32 0xB8C77E6E683BB4FB12C00C33A052A577FFD995B6CB23976B28F9F2A471DBA631 PUSH1 0x2 SLOAD DUP3 PUSH1 0x40 MLOAD PUSH2 0x3F9 SWAP3 SWAP2 SWAP1 PUSH2 0xDDC JUMP JUMPDEST PUSH1 0x40 MLOAD DUP1 SWAP2 SUB SWAP1 LOG1 POP JUMP JUMPDEST PUSH1 0x1 PUSH0 SWAP1 SLOAD SWAP1 PUSH2 0x100 EXP SWAP1 DIV PUSH20 0xFFFFFFFFFFFFFFFFFFFFFFFFFFFFFFFFFFFFFFFF AND PUSH20 0xFFFFFFFFFFFFFFFFFFFFFFFFFFFFFFFFFFFFFFFF AND CALLER PUSH20 0xFFFFFFFFFFFFFFFFFFFFFFFFFFFFFFFFFFFFFFFF AND EQ PUSH2 0x48A JUMPI PUSH1 0x40 MLOAD PUSH32 0x8F7A5B8900000000000000000000000000000000000000000000000000000000 DUP2 MSTORE PUSH1 0x4 ADD PUSH1 0x40 MLOAD DUP1 SWAP2 SUB SWAP1 REVERT JUMPDEST PUSH1 0x4 PUSH0 SWAP1 SLOAD SWAP1 PUSH2 0x100 EXP SWAP1 DIV PUSH1 0xFF AND PUSH2 0x4CF JUMPI PUSH1 0x40 MLOAD PUSH32 0x59F7130E00000000000000000000000000000000000000000000000000000000 DUP2 MSTORE PUSH1 0x4 ADD PUSH1 0x40 MLOAD DUP1 SWAP2 SUB SWAP1 REVERT JUMPDEST PUSH1 0x5 PUSH0 DUP4 PUSH20 0xFFFFFFFFFFFFFFFFFFFFFFFFFFFFFFFFFFFFFFFF AND PUSH20 0xFFFFFFFFFFFFFFFFFFFFFFFFFFFFFFFFFFFFFFFF AND DUP2 MSTORE PUSH1 0x20 ADD SWAP1 DUP2 MSTORE PUSH1 0x20 ADD PUSH0 KECCAK256 PUSH0 SWAP1 SLOAD SWAP1 PUSH2 0x100 EXP SWAP1 DIV PUSH1 0xFF AND ISZERO PUSH2 0x550 JUMPI PUSH1 0x40 MLOAD PUSH32 0x646CF55800000000000000000000000000000000000000000000000000000000 DUP2 MSTORE PUSH1 0x4 ADD PUSH1 0x40 MLOAD DUP1 SWAP2 SUB SWAP1 REVERT JUMPDEST PUSH1 0x1 PUSH1 0x5 PUSH0 DUP5 PUSH20 0xFFFFFFFFFFFFFFFFFFFFFFFFFFFFFFFFFFFFFFFF AND PUSH20 0xFFFFFFFFFFFFFFFFFFFFFFFFFFFFFFFFFFFFFFFF AND DUP2 MSTORE PUSH1 0x20 ADD SWAP1 DUP2 MSTORE PUSH1 0x20 ADD PUSH0 KECCAK256 PUSH0 PUSH2 0x100 EXP DUP2 SLOAD DUP2 PUSH1 0xFF MUL NOT AND SWAP1 DUP4 ISZERO ISZERO MUL OR SWAP1 SSTORE POP PUSH0 PUSH2 0x5AF DUP3 PUSH2 0x7BD JUMP JUMPDEST SWAP1 POP PUSH0 DUP2 GT ISZERO PUSH2 0x605 JUMPI PUSH2 0x604 DUP4 DUP3 PUSH32 0x0 PUSH20 0xFFFFFFFFFFFFFFFFFFFFFFFFFFFFFFFFFFFFFFFF AND PUSH2 0x8F6 SWAP1 SWAP3 SWAP2 SWAP1 PUSH4 0xFFFFFFFF AND JUMP JUMPDEST JUMPDEST DUP3 PUSH20 0xFFFFFFFFFFFFFFFFFFFFFFFFFFFFFFFFFFFFFFFF AND PUSH32 0x106F923F993C2149D49B4255FF723ACAFA1F2D94393F561D3EDA32AE348F7241 DUP3 PUSH1 0x40 MLOAD PUSH2 0x64B SWAP2 SWAP1 PUSH2 0xD4F JUMP JUMPDEST PUSH1 0x40 MLOAD DUP1 SWAP2 SUB SWAP1 LOG2 POP POP POP JUMP JUMPDEST PUSH2 0x660 PUSH2 0x949 JUMP JUMPDEST PUSH2 0x669 PUSH0 PUSH2 0x9D0 JUMP JUMPDEST JUMP JUMPDEST PUSH1 0x4 PUSH0 SWAP1 SLOAD SWAP1 PUSH2 0x100 EXP SWAP1 DIV PUSH1 0xFF AND DUP2 JUMP JUMPDEST PUSH2 0x685 PUSH2 0x949 JUMP JUMPDEST DUP1 PUSH1 0x1 PUSH0 PUSH2 0x100 EXP DUP2 SLOAD DUP2 PUSH20 0xFFFFFFFFFFFFFFFFFFFFFFFFFFFFFFFFFFFFFFFF MUL NOT AND SWAP1 DUP4 PUSH20 0xFFFFFFFFFFFFFFFFFFFFFFFFFFFFFFFFFFFFFFFF AND MUL OR SWAP1 SSTORE POP DUP1 PUSH20 0xFFFFFFFFFFFFFFFFFFFFFFFFFFFFFFFFFFFFFFFF AND PUSH32 0x618DA7D07F45545E460914744A289074460C26AD655A3EAD2D286DDDE709F0F1 PUSH1 0x40 MLOAD PUSH1 0x40 MLOAD DUP1 SWAP2 SUB SWAP1 LOG2 POP JUMP JUMPDEST PUSH0 DUP1 PUSH0 SWAP1 SLOAD SWAP1 PUSH2 0x100 EXP SWAP1 DIV PUSH20 0xFFFFFFFFFFFFFFFFFFFFFFFFFFFFFFFFFFFFFFFF AND SWAP1 POP SWAP1 JUMP JUMPDEST PUSH2 0x77F CALLER ADDRESS DUP4 PUSH32 0x0 PUSH20 0xFFFFFFFFFFFFFFFFFFFFFFFFFFFFFFFFFFFFFFFF AND PUSH2 0xA91 SWAP1 SWAP4 SWAP3 SWAP2 SWAP1 PUSH4 0xFFFFFFFF AND JUMP JUMPDEST DUP1 PUSH1 0x2 PUSH0 DUP3 DUP3 SLOAD PUSH2 0x790 SWAP2 SWAP1 PUSH2 0xE30 JUMP JUMPDEST SWAP3 POP POP DUP2 SWAP1 SSTORE POP POP JUMP JUMPDEST PUSH1 0x2 SLOAD DUP2 JUMP JUMPDEST PUSH1 0x5 PUSH1 0x20 MSTORE DUP1 PUSH0 MSTORE PUSH1 0x40 PUSH0 KECCAK256 PUSH0 SWAP2 POP SLOAD SWAP1 PUSH2 0x100 EXP SWAP1 DIV PUSH1 0xFF AND DUP2 JUMP JUMPDEST PUSH0 DUP1 PUSH1 0x3 SLOAD SUB PUSH2 0x7CF JUMPI PUSH0 SWAP1 POP PUSH2 0x7ED JUMP JUMPDEST PUSH1 0x3 SLOAD PUSH1 0x2 SLOAD DUP4 PUSH2 0x7E0 SWAP2 SWAP1 PUSH2 0xE63 JUMP JUMPDEST PUSH2 0x7EA SWAP2 SWAP1 PUSH2 0xED1 JUMP JUMPDEST SWAP1 POP JUMPDEST SWAP2 SWAP1 POP JUMP JUMPDEST PUSH1 0x1 PUSH0 SWAP1 SLOAD SWAP1 PUSH2 0x100 EXP SWAP1 DIV PUSH20 0xFFFFFFFFFFFFFFFFFFFFFFFFFFFFFFFFFFFFFFFF AND DUP2 JUMP JUMPDEST PUSH2 0x81F PUSH2 0x949 JUMP JUMPDEST PUSH0 PUSH1 0x2 DUP2 SWAP1 SSTORE POP PUSH0 PUSH1 0x3 DUP2 SWAP1 SSTORE POP PUSH0 PUSH1 0x4 PUSH0 PUSH2 0x100 EXP DUP2 SLOAD DUP2 PUSH1 0xFF MUL NOT AND SWAP1 DUP4 ISZERO ISZERO MUL OR SWAP1 SSTORE POP JUMP JUMPDEST PUSH1 0x3 SLOAD DUP2 JUMP JUMPDEST PUSH2 0x856 PUSH2 0x949 JUMP JUMPDEST PUSH0 PUSH20 0xFFFFFFFFFFFFFFFFFFFFFFFFFFFFFFFFFFFFFFFF AND DUP2 PUSH20 0xFFFFFFFFFFFFFFFFFFFFFFFFFFFFFFFFFFFFFFFF AND SUB PUSH2 0x8C6 JUMPI PUSH0 PUSH1 0x40 MLOAD PUSH32 0x1E4FBDF700000000000000000000000000000000000000000000000000000000 DUP2 MSTORE PUSH1 0x4 ADD PUSH2 0x8BD SWAP2 SWAP1 PUSH2 0xD27 JUMP JUMPDEST PUSH1 0x40 MLOAD DUP1 SWAP2 SUB SWAP1 REVERT JUMPDEST PUSH2 0x8CF DUP2 PUSH2 0x9D0 JUMP JUMPDEST POP JUMP JUMPDEST PUSH32 0x0 DUP2 JUMP JUMPDEST PUSH2 0x903 DUP4 DUP4 DUP4 PUSH1 0x1 PUSH2 0xAE6 JUMP JUMPDEST PUSH2 0x944 JUMPI DUP3 PUSH1 0x40 MLOAD PUSH32 0x5274AFE700000000000000000000000000000000000000000000000000000000 DUP2 MSTORE PUSH1 0x4 ADD PUSH2 0x93B SWAP2 SWAP1 PUSH2 0xD27 JUMP JUMPDEST PUSH1 0x40 MLOAD DUP1 SWAP2 SUB SWAP1 REVERT JUMPDEST POP POP POP JUMP JUMPDEST PUSH2 0x951 PUSH2 0xB48 JUMP JUMPDEST PUSH20 0xFFFFFFFFFFFFFFFFFFFFFFFFFFFFFFFFFFFFFFFF AND PUSH2 0x96F PUSH2 0x70B JUMP JUMPDEST PUSH20 0xFFFFFFFFFFFFFFFFFFFFFFFFFFFFFFFFFFFFFFFF AND EQ PUSH2 0x9CE JUMPI PUSH2 0x992 PUSH2 0xB48 JUMP JUMPDEST PUSH1 0x40 MLOAD PUSH32 0x118CDAA700000000000000000000000000000000000000000000000000000000 DUP2 MSTORE PUSH1 0x4 ADD PUSH2 0x9C5 SWAP2 SWAP1 PUSH2 0xD27 JUMP JUMPDEST PUSH1 0x40 MLOAD DUP1 SWAP2 SUB SWAP1 REVERT JUMPDEST JUMP JUMPDEST PUSH0 DUP1 PUSH0 SWAP1 SLOAD SWAP1 PUSH2 0x100 EXP SWAP1 DIV PUSH20 0xFFFFFFFFFFFFFFFFFFFFFFFFFFFFFFFFFFFFFFFF AND SWAP1 POP DUP2 PUSH0 DUP1 PUSH2 0x100 EXP DUP2 SLOAD DUP2 PUSH20 0xFFFFFFFFFFFFFFFFFFFFFFFFFFFFFFFFFFFFFFFF MUL NOT AND SWAP1 DUP4 PUSH20 0xFFFFFFFFFFFFFFFFFFFFFFFFFFFFFFFFFFFFFFFF AND MUL OR SWAP1 SSTORE POP DUP2 PUSH20 0xFFFFFFFFFFFFFFFFFFFFFFFFFFFFFFFFFFFFFFFF AND DUP2 PUSH20 0xFFFFFFFFFFFFFFFFFFFFFFFFFFFFFFFFFFFFFFFF AND PUSH32 0x8BE0079C531659141344CD1FD0A4F28419497F9722A3DAAFE3B4186F6B6457E0 PUSH1 0x40 MLOAD PUSH1 0x40 MLOAD DUP1 SWAP2 SUB SWAP1 LOG3 POP POP JUMP JUMPDEST PUSH2 0xA9F DUP5 DUP5 DUP5 DUP5 PUSH1 0x1 PUSH2 0xB4F JUMP JUMPDEST PUSH2 0xAE0 JUMPI DUP4 PUSH1 0x40 MLOAD PUSH32 0x5274AFE700000000000000000000000000000000000000000000000000000000 DUP2 MSTORE PUSH1 0x4 ADD PUSH2 0xAD7 SWAP2 SWAP1 PUSH2 0xD27 JUMP JUMPDEST PUSH1 0x40 MLOAD DUP1 SWAP2 SUB SWAP1 REVERT JUMPDEST POP POP POP POP JUMP JUMPDEST PUSH0 DUP1 PUSH4 0xA9059CBB PUSH1 0xE0 SHL SWAP1 POP PUSH1 0x40 MLOAD DUP2 PUSH0 MSTORE PUSH0 NOT PUSH1 0x60 SHR DUP7 AND PUSH1 0x4 MSTORE DUP5 PUSH1 0x24 MSTORE PUSH1 0x20 PUSH0 PUSH1 0x44 PUSH0 DUP1 DUP12 GAS CALL SWAP3 POP PUSH1 0x1 PUSH0 MLOAD EQ DUP4 AND PUSH2 0xB3A JUMPI DUP4 DUP4 ISZERO AND ISZERO PUSH2 0xB2E JUMPI RETURNDATASIZE PUSH0 DUP3 RETURNDATACOPY RETURNDATASIZE DUP2 REVERT JUMPDEST PUSH0 DUP8 EXTCODESIZE GT RETURNDATASIZE ISZERO AND DUP4 AND SWAP3 POP JUMPDEST DUP1 PUSH1 0x40 MSTORE POP POP SWAP5 SWAP4 POP POP POP POP JUMP JUMPDEST PUSH0 CALLER SWAP1 POP SWAP1 JUMP JUMPDEST PUSH0 DUP1 PUSH4 0x23B872DD PUSH1 0xE0 SHL SWAP1 POP PUSH1 0x40 MLOAD DUP2 PUSH0 MSTORE PUSH0 NOT PUSH1 0x60 SHR DUP8 AND PUSH1 0x4 MSTORE PUSH0 NOT PUSH1 0x60 SHR DUP7 AND PUSH1 0x24 MSTORE DUP5 PUSH1 0x44 MSTORE PUSH1 0x20 PUSH0 PUSH1 0x64 PUSH0 DUP1 DUP13 GAS CALL SWAP3 POP PUSH1 0x1 PUSH0 MLOAD EQ DUP4 AND PUSH2 0xBAD JUMPI DUP4 DUP4 ISZERO AND ISZERO PUSH2 0xBA1 JUMPI RETURNDATASIZE PUSH0 DUP3 RETURNDATACOPY RETURNDATASIZE DUP2 REVERT JUMPDEST PUSH0 DUP9 EXTCODESIZE GT RETURNDATASIZE ISZERO AND DUP4 AND SWAP3 POP JUMPDEST DUP1 PUSH1 0x40 MSTORE PUSH0 PUSH1 0x60 MSTORE POP POP SWAP6 SWAP5 POP POP POP POP POP JUMP JUMPDEST PUSH0 DUP1 REVERT JUMPDEST PUSH0 DUP2 SWAP1 POP SWAP2 SWAP1 POP JUMP JUMPDEST PUSH2 0xBD6 DUP2 PUSH2 0xBC4 JUMP JUMPDEST DUP2 EQ PUSH2 0xBE0 JUMPI PUSH0 DUP1 REVERT JUMPDEST POP JUMP JUMPDEST PUSH0 DUP2 CALLDATALOAD SWAP1 POP PUSH2 0xBF1 DUP2 PUSH2 0xBCD JUMP JUMPDEST SWAP3 SWAP2 POP POP JUMP JUMPDEST PUSH0 PUSH1 0x20 DUP3 DUP5 SUB SLT ISZERO PUSH2 0xC0C JUMPI PUSH2 0xC0B PUSH2 0xBC0 JUMP JUMPDEST JUMPDEST PUSH0 PUSH2 0xC19 DUP5 DUP3 DUP6 ADD PUSH2 0xBE3 JUMP JUMPDEST SWAP2 POP POP SWAP3 SWAP2 POP POP JUMP JUMPDEST PUSH0 PUSH20 0xFFFFFFFFFFFFFFFFFFFFFFFFFFFFFFFFFFFFFFFF DUP3 AND SWAP1 POP SWAP2 SWAP1 POP JUMP JUMPDEST PUSH0 PUSH2 0xC4B DUP3 PUSH2 0xC22 JUMP JUMPDEST SWAP1 POP SWAP2 SWAP1 POP JUMP JUMPDEST PUSH2 0xC5B DUP2 PUSH2 0xC41 JUMP JUMPDEST DUP2 EQ PUSH2 0xC65 JUMPI PUSH0 DUP1 REVERT JUMPDEST POP JUMP JUMPDEST PUSH0 DUP2 CALLDATALOAD SWAP1 POP PUSH2 0xC76 DUP2 PUSH2 0xC52 JUMP JUMPDEST SWAP3 SWAP2 POP POP JUMP JUMPDEST PUSH0 DUP1 PUSH1 0x40 DUP4 DUP6 SUB SLT ISZERO PUSH2 0xC92 JUMPI PUSH2 0xC91 PUSH2 0xBC0 JUMP JUMPDEST JUMPDEST PUSH0 PUSH2 0xC9F DUP6 DUP3 DUP7 ADD PUSH2 0xC68 JUMP JUMPDEST SWAP3 POP POP PUSH1 0x20 PUSH2 0xCB0 DUP6 DUP3 DUP7 ADD PUSH2 0xBE3 JUMP JUMPDEST SWAP2 POP POP SWAP3 POP SWAP3 SWAP1 POP JUMP JUMPDEST PUSH0 DUP2 ISZERO ISZERO SWAP1 POP SWAP2 SWAP1 POP JUMP JUMPDEST PUSH2 0xCCE DUP2 PUSH2 0xCBA JUMP JUMPDEST DUP3 MSTORE POP POP JUMP JUMPDEST PUSH0 PUSH1 0x20 DUP3 ADD SWAP1 POP PUSH2 0xCE7 PUSH0 DUP4 ADD DUP5 PUSH2 0xCC5 JUMP JUMPDEST SWAP3 SWAP2 POP POP JUMP JUMPDEST PUSH0 PUSH1 0x20 DUP3 DUP5 SUB SLT ISZERO PUSH2 0xD02 JUMPI PUSH2 0xD01 PUSH2 0xBC0 JUMP JUMPDEST JUMPDEST PUSH0 PUSH2 0xD0F DUP5 DUP3 DUP6 ADD PUSH2 0xC68 JUMP JUMPDEST SWAP2 POP POP SWAP3 SWAP2 POP POP JUMP JUMPDEST PUSH2 0xD21 DUP2 PUSH2 0xC41 JUMP JUMPDEST DUP3 MSTORE POP POP JUMP JUMPDEST PUSH0 PUSH1 0x20 DUP3 ADD SWAP1 POP PUSH2 0xD3A PUSH0 DUP4 ADD DUP5 PUSH2 0xD18 JUMP JUMPDEST SWAP3 SWAP2 POP POP JUMP JUMPDEST PUSH2 0xD49 DUP2 PUSH2 0xBC4 JUMP JUMPDEST DUP3 MSTORE POP POP JUMP JUMPDEST PUSH0 PUSH1 0x20 DUP3 ADD SWAP1 POP PUSH2 0xD62 PUSH0 DUP4 ADD DUP5 PUSH2 0xD40 JUMP JUMPDEST SWAP3 SWAP2 POP POP JUMP JUMPDEST PUSH0 DUP2 SWAP1 POP SWAP2 SWAP1 POP JUMP JUMPDEST PUSH0 PUSH2 0xD8B PUSH2 0xD86 PUSH2 0xD81 DUP5 PUSH2 0xC22 JUMP JUMPDEST PUSH2 0xD68 JUMP JUMPDEST PUSH2 0xC22 JUMP JUMPDEST SWAP1 POP SWAP2 SWAP1 POP JUMP JUMPDEST PUSH0 PUSH2 0xD9C DUP3 PUSH2 0xD71 JUMP JUMPDEST SWAP1 POP SWAP2 SWAP1 POP JUMP JUMPDEST PUSH0 PUSH2 0xDAD DUP3 PUSH2 0xD92 JUMP JUMPDEST SWAP1 POP SWAP2 SWAP1 POP JUMP JUMPDEST PUSH2 0xDBD DUP2 PUSH2 0xDA3 JUMP JUMPDEST DUP3 MSTORE POP POP JUMP JUMPDEST PUSH0 PUSH1 0x20 DUP3 ADD SWAP1 POP PUSH2 0xDD6 PUSH0 DUP4 ADD DUP5 PUSH2 0xDB4 JUMP JUMPDEST SWAP3 SWAP2 POP POP JUMP JUMPDEST PUSH0 PUSH1 0x40 DUP3 ADD SWAP1 POP PUSH2 0xDEF PUSH0 DUP4 ADD DUP6 PUSH2 0xD40 JUMP JUMPDEST PUSH2 0xDFC PUSH1 0x20 DUP4 ADD DUP5 PUSH2 0xD40 JUMP JUMPDEST SWAP4 SWAP3 POP POP POP JUMP JUMPDEST PUSH32 0x4E487B7100000000000000000000000000000000000000000000000000000000 PUSH0 MSTORE PUSH1 0x11 PUSH1 0x4 MSTORE PUSH1 0x24 PUSH0 REVERT JUMPDEST PUSH0 PUSH2 0xE3A DUP3 PUSH2 0xBC4 JUMP JUMPDEST SWAP2 POP PUSH2 0xE45 DUP4 PUSH2 0xBC4 JUMP JUMPDEST SWAP3 POP DUP3 DUP3 ADD SWAP1 POP DUP1 DUP3 GT ISZERO PUSH2 0xE5D JUMPI PUSH2 0xE5C PUSH2 0xE03 JUMP JUMPDEST JUMPDEST SWAP3 SWAP2 POP POP JUMP JUMPDEST PUSH0 PUSH2 0xE6D DUP3 PUSH2 0xBC4 JUMP JUMPDEST SWAP2 POP PUSH2 0xE78 DUP4 PUSH2 0xBC4 JUMP JUMPDEST SWAP3 POP DUP3 DUP3 MUL PUSH2 0xE86 DUP2 PUSH2 0xBC4 JUMP JUMPDEST SWAP2 POP DUP3 DUP3 DIV DUP5 EQ DUP4 ISZERO OR PUSH2 0xE9D JUMPI PUSH2 0xE9C PUSH2 0xE03 JUMP JUMPDEST JUMPDEST POP SWAP3 SWAP2 POP POP JUMP JUMPDEST PUSH32 0x4E487B7100000000000000000000000000000000000000000000000000000000 PUSH0 MSTORE PUSH1 0x12 PUSH1 0x4 MSTORE PUSH1 0x24 PUSH0 REVERT JUMPDEST PUSH0 PUSH2 0xEDB DUP3 PUSH2 0xBC4 JUMP JUMPDEST SWAP2 POP PUSH2 0xEE6 DUP4 PUSH2 0xBC4 JUMP JUMPDEST SWAP3 POP DUP3 PUSH2 0xEF6 JUMPI PUSH2 0xEF5 PUSH2 0xEA4 JUMP JUMPDEST JUMPDEST DUP3 DUP3 DIV SWAP1 POP SWAP3 SWAP2 POP POP JUMP INVALID LOG2 PUSH5 0x6970667358 0x22 SLT KECCAK256 PUSH4 0x9C38A116 0x24 0xDF SWAP14 0xB2 PUSH3 0x438381 CALLDATACOPY SWAP13 LOG2 0xCF DUP12 0x2F CREATE 0x29 0xA5 0x49 DUP14 0xD5 0xFC BASEFEE 0xEC 0x2B CALLER 0xE7 0x4A PUSH5 0x736F6C6343 STOP ADDMOD EQ STOP CALLER "},"methodIdentifiers":{"calculateShare(uint256)":"cae1ab97","claimReward(address,uint256)":"174e31c4","claimed(address)":"c884ef83","deposit(uint256)":"b6b55f25","finalizeWave(uint256)":"08e3822c","owner()":"8da5cb5b","renounceOwnership()":"715018a6","resetWave()":"ef044078","rewardToken()":"f7c618c1","setWaveAdmin(address)":"80d0847c","totalPointsAwarded()":"f04227d3","totalWavePool()":"be54185d","transferOwnership(address)":"f2fde38b","waveAdmin()":"eb6597d9","waveFinalized()":"78c092c9"}}}}}