{
  "_format": "hh3-artifact-1",
  "contractName": "RewardVault",
  "sourceName": "contracts/RewardVault.sol",
  "abi": [
    {
      "inputs": [
        {
          "internalType": "address",
          "name": "_rewardToken",
          "type": "address"
        },
        {
          "internalType": "address",
          "name": "_waveAdmin",
          "type": "address"
        }
      ],
      "stateMutability": "nonpayable",
      "type": "constructor"
    },
    {
      "inputs": [],
      "name": "AlreadyClaimed",
      "type": "error"
    },
    {
      "inputs": [],
      "name": "NotWaveAdmin",
      "type": "error"
    },
    {
      "inputs": [
        {
          "internalType": "address",
          "name": "owner",
          "type": "address"
        }
      ],
      "name": "OwnableInvalidOwner",
      "type": "error"
    },
    {
      "inputs": [
        {
          "internalType": "address",
          "name": "account",
          "type": "address"
        }
      ],
      "name": "OwnableUnauthorizedAccount",
      "type": "error"
    },
    {
      "inputs": [
        {
          "internalType": "address",
          "name": "token",
          "type": "address"
        }
      ],
      "name": "SafeERC20FailedOperation",
      "type": "error"
    },
    {
      "inputs": [],
      "name": "WaveNotFinalized",
      "type": "error"
    },
    {
      "inputs": [],
      "name": "ZeroPoints",
      "type": "error"
    },
    {
      "inputs": [],
      "name": "ZeroPool",
      "type": "error"
    },
    {
      "anonymous": false,
      "inputs": [
        {
          "indexed": true,
          "internalType": "address",
          "name": "previousOwner",
          "type": "address"
        },
        {
          "indexed": true,
          "internalType": "address",
          "name": "newOwner",
          "type": "address"
        }
      ],
      "name": "OwnershipTransferred",
      "type": "event"
    },
    {
      "anonymous": false,
      "inputs": [
        {
          "indexed": true,
          "internalType": "address",
          "name": "user",
          "type": "address"
        },
        {
          "indexed": false,
          "internalType": "uint256",
          "name": "amount",
          "type": "uint256"
        }
      ],
      "name": "RewardClaimed",
      "type": "event"
    },
    {
      "anonymous": false,
      "inputs": [
        {
          "indexed": true,
          "internalType": "address",
          "name": "newAdmin",
          "type": "address"
        }
      ],
      "name": "WaveAdminUpdated",
      "type": "event"
    },
    {
      "anonymous": false,
      "inputs": [
        {
          "indexed": false,
          "internalType": "uint256",
          "name": "totalPool",
          "type": "uint256"
        },
        {
          "indexed": false,
          "internalType": "uint256",
          "name": "totalPoints",
          "type": "uint256"
        }
      ],
      "name": "WaveFinalized",
      "type": "event"
    },
    {
      "inputs": [
        {
          "internalType": "uint256",
          "name": "_userPoints",
          "type": "uint256"
        }
      ],
      "name": "calculateShare",
      "outputs": [
        {
          "internalType": "uint256",
          "name": "",
          "type": "uint256"
        }
      ],
      "stateMutability": "view",
      "type": "function"
    },
    {
      "inputs": [
        {
          "internalType": "address",
          "name": "_user",
          "type": "address"
        },
        {
          "internalType": "uint256",
          "name": "_userPoints",
          "type": "uint256"
        }
      ],
      "name": "claimReward",
      "outputs": [],
      "stateMutability": "nonpayable",
      "type": "function"
    },
    {
      "inputs": [
        {
          "internalType": "address",
          "name": "",
          "type": "address"
        }
      ],
      "name": "claimed",
      "outputs": [
        {
          "internalType": "bool",
          "name": "",
          "type": "bool"
        }
      ],
      "stateMutability": "view",
      "type": "function"
    },
    {
      "inputs": [
        {
          "internalType": "uint256",
          "name": "_amount",
          "type": "uint256"
        }
      ],
      "name": "deposit",
      "outputs": [],
      "stateMutability": "nonpayable",
      "type": "function"
    },
    {
      "inputs": [
        {
          "internalType": "uint256",
          "name": "_totalPoints",
          "type": "uint256"
        }
      ],
      "name": "finalizeWave",
      "outputs": [],
      "stateMutability": "nonpayable",
      "type": "function"
    },
    {
      "inputs": [],
      "name": "owner",
      "outputs": [
        {
          "internalType": "address",
          "name": "",
          "type": "address"
        }
      ],
      "stateMutability": "view",
      "type": "function"
    },
    {
      "inputs": [],
      "name": "renounceOwnership",
      "outputs": [],
      "stateMutability": "nonpayable",
      "type": "function"
    },
    {
      "inputs": [],
      "name": "resetWave",
      "outputs": [],
      "stateMutability": "nonpayable",
      "type": "function"
    },
    {
      "inputs": [],
      "name": "rewardToken",
      "outputs": [
        {
          "internalType": "contract IERC20",
          "name": "",
          "type": "address"
        }
      ],
      "stateMutability": "view",
      "type": "function"
    },
    {
      "inputs": [
        {
          "internalType": "address",
          "name": "_newAdmin",
          "type": "address"
        }
      ],
      "name": "setWaveAdmin",
      "outputs": [],
      "stateMutability": "nonpayable",
      "type": "function"
    },
    {
      "inputs": [],
      "name": "totalPointsAwarded",
      "outputs": [
        {
          "internalType": "uint256",
          "name": "",
          "type": "uint256"
        }
      ],
      "stateMutability": "view",
      "type": "function"
    },
    {
      "inputs": [],
      "name": "totalWavePool",
      "outputs": [
        {
          "internalType": "uint256",
          "name": "",
          "type": "uint256"
        }
      ],
      "stateMutability": "view",
      "type": "function"
    },
    {
      "inputs": [
        {
          "internalType": "address",
          "name": "newOwner",
          "type": "address"
        }
      ],
      "name": "transferOwnership",
      "outputs": [],
      "stateMutability": "nonpayable",
      "type": "function"
    },
    {
      "inputs": [],
      "name": "waveAdmin",
      "outputs": [
        {
          "internalType": "address",
          "name": "",
          "type": "address"
        }
      ],
      "stateMutability": "view",
      "type": "function"
    },
    {
      "inputs": [],
      "name": "waveFinalized",
      "outputs": [
        {
          "internalType": "bool",
          "name": "",
          "type": "bool"
        }
      ],
      "stateMutability": "view",
      "type": "function"
    }
  ],
  "bytecode": "0x60a060405234801562000010575f80fd5b506040516200122d3803806200122d83398181016040528101906200003691906200025e565b335f73ffffffffffffffffffffffffffffffffffffffff168173ffffffffffffffffffffffffffffffffffffffff1603620000aa575f6040517f1e4fbdf7000000000000000000000000000000000000000000000000000000008152600401620000a19190620002b4565b60405180910390fd5b620000bb816200013860201b60201c565b508173ffffffffffffffffffffffffffffffffffffffff1660808173ffffffffffffffffffffffffffffffffffffffff16815250508060015f6101000a81548173ffffffffffffffffffffffffffffffffffffffff021916908373ffffffffffffffffffffffffffffffffffffffff1602179055505050620002cf565b5f805f9054906101000a900473ffffffffffffffffffffffffffffffffffffffff169050815f806101000a81548173ffffffffffffffffffffffffffffffffffffffff021916908373ffffffffffffffffffffffffffffffffffffffff1602179055508173ffffffffffffffffffffffffffffffffffffffff168173ffffffffffffffffffffffffffffffffffffffff167f8be0079c531659141344cd1fd0a4f28419497f9722a3daafe3b4186f6b6457e060405160405180910390a35050565b5f80fd5b5f73ffffffffffffffffffffffffffffffffffffffff82169050919050565b5f6200022882620001fd565b9050919050565b6200023a816200021c565b811462000245575f80fd5b50565b5f8151905062000258816200022f565b92915050565b5f8060408385031215620002775762000276620001f9565b5b5f620002868582860162000248565b9250506020620002998582860162000248565b9150509250929050565b620002ae816200021c565b82525050565b5f602082019050620002c95f830184620002a3565b92915050565b608051610f37620002f65f395f81816105c00152818161073a01526108d40152610f375ff3fe608060405234801561000f575f80fd5b50600436106100f3575f3560e01c8063be54185d11610095578063ef04407811610064578063ef04407814610249578063f04227d314610253578063f2fde38b14610271578063f7c618c11461028d576100f3565b8063be54185d146101ad578063c884ef83146101cb578063cae1ab97146101fb578063eb6597d91461022b576100f3565b806378c092c9116100d157806378c092c91461013957806380d0847c146101575780638da5cb5b14610173578063b6b55f2514610191576100f3565b806308e3822c146100f7578063174e31c414610113578063715018a61461012f575b5f80fd5b610111600480360381019061010c9190610bf7565b6102ab565b005b61012d60048036038101906101289190610c7c565b610404565b005b610137610658565b005b61014161066b565b60405161014e9190610cd4565b60405180910390f35b610171600480360381019061016c9190610ced565b61067d565b005b61017b61070b565b6040516101889190610d27565b60405180910390f35b6101ab60048036038101906101a69190610bf7565b610732565b005b6101b561079a565b6040516101c29190610d4f565b60405180910390f35b6101e560048036038101906101e09190610ced565b6107a0565b6040516101f29190610cd4565b60405180910390f35b61021560048036038101906102109190610bf7565b6107bd565b6040516102229190610d4f565b60405180910390f35b6102336107f2565b6040516102409190610d27565b60405180910390f35b610251610817565b005b61025b610848565b6040516102689190610d4f565b60405180910390f35b61028b60048036038101906102869190610ced565b61084e565b005b6102956108d2565b6040516102a29190610dc3565b60405180910390f35b60015f9054906101000a900473ffffffffffffffffffffffffffffffffffffffff1673ffffffffffffffffffffffffffffffffffffffff163373ffffffffffffffffffffffffffffffffffffffff1614610331576040517f8f7a5b8900000000000000000000000000000000000000000000000000000000815260040160405180910390fd5b5f810361036a576040517f6abb5ca500000000000000000000000000000000000000000000000000000000815260040160405180910390fd5b5f600254036103a5576040517fd0d6cb3200000000000000000000000000000000000000000000000000000000815260040160405180910390fd5b80600381905550600160045f6101000a81548160ff0219169083151502179055507fb8c77e6e683bb4fb12c00c33a052a577ffd995b6cb23976b28f9f2a471dba631600254826040516103f9929190610ddc565b60405180910390a150565b60015f9054906101000a900473ffffffffffffffffffffffffffffffffffffffff1673ffffffffffffffffffffffffffffffffffffffff163373ffffffffffffffffffffffffffffffffffffffff161461048a576040517f8f7a5b8900000000000000000000000000000000000000000000000000000000815260040160405180910390fd5b60045f9054906101000a900460ff166104cf576040517f59f7130e00000000000000000000000000000000000000000000000000000000815260040160405180910390fd5b60055f8373ffffffffffffffffffffffffffffffffffffffff1673ffffffffffffffffffffffffffffffffffffffff1681526020019081526020015f205f9054906101000a900460ff1615610550576040517f646cf55800000000000000000000000000000000000000000000000000000000815260040160405180910390fd5b600160055f8473ffffffffffffffffffffffffffffffffffffffff1673ffffffffffffffffffffffffffffffffffffffff1681526020019081526020015f205f6101000a81548160ff0219169083151502179055505f6105af826107bd565b90505f8111156106055761060483827f000000000000000000000000000000000000000000000000000000000000000073ffffffffffffffffffffffffffffffffffffffff166108f69092919063ffffffff16565b5b8273ffffffffffffffffffffffffffffffffffffffff167f106f923f993c2149d49b4255ff723acafa1f2d94393f561d3eda32ae348f72418260405161064b9190610d4f565b60405180910390a2505050565b610660610949565b6106695f6109d0565b565b60045f9054906101000a900460ff1681565b610685610949565b8060015f6101000a81548173ffffffffffffffffffffffffffffffffffffffff021916908373ffffffffffffffffffffffffffffffffffffffff1602179055508073ffffffffffffffffffffffffffffffffffffffff167f618da7d07f45545e460914744a289074460c26ad655a3ead2d286ddde709f0f160405160405180910390a250565b5f805f9054906101000a900473ffffffffffffffffffffffffffffffffffffffff16905090565b61077f3330837f000000000000000000000000000000000000000000000000000000000000000073ffffffffffffffffffffffffffffffffffffffff16610a91909392919063ffffffff16565b8060025f8282546107909190610e30565b9250508190555050565b60025481565b6005602052805f5260405f205f915054906101000a900460ff1681565b5f80600354036107cf575f90506107ed565b600354600254836107e09190610e63565b6107ea9190610ed1565b90505b919050565b60015f9054906101000a900473ffffffffffffffffffffffffffffffffffffffff1681565b61081f610949565b5f6002819055505f6003819055505f60045f6101000a81548160ff021916908315150217905550565b60035481565b610856610949565b5f73ffffffffffffffffffffffffffffffffffffffff168173ffffffffffffffffffffffffffffffffffffffff16036108c6575f6040517f1e4fbdf70000000000000000000000000000000000000000000000000000000081526004016108bd9190610d27565b60405180910390fd5b6108cf816109d0565b50565b7f000000000000000000000000000000000000000000000000000000000000000081565b6109038383836001610ae6565b61094457826040517f5274afe700000000000000000000000000000000000000000000000000000000815260040161093b9190610d27565b60405180910390fd5b505050565b610951610b48565b73ffffffffffffffffffffffffffffffffffffffff1661096f61070b565b73ffffffffffffffffffffffffffffffffffffffff16146109ce57610992610b48565b6040517f118cdaa70000000000000000000000000000000000000000000000000000000081526004016109c59190610d27565b60405180910390fd5b565b5f805f9054906101000a900473ffffffffffffffffffffffffffffffffffffffff169050815f806101000a81548173ffffffffffffffffffffffffffffffffffffffff021916908373ffffffffffffffffffffffffffffffffffffffff1602179055508173ffffffffffffffffffffffffffffffffffffffff168173ffffffffffffffffffffffffffffffffffffffff167f8be0079c531659141344cd1fd0a4f28419497f9722a3daafe3b4186f6b6457e060405160405180910390a35050565b610a9f848484846001610b4f565b610ae057836040517f5274afe7000000000000000000000000000000000000000000000000000000008152600401610ad79190610d27565b60405180910390fd5b50505050565b5f8063a9059cbb60e01b9050604051815f525f1960601c86166004528460245260205f60445f808b5af1925060015f51148316610b3a578383151615610b2e573d5f823e3d81fd5b5f873b113d1516831692505b806040525050949350505050565b5f33905090565b5f806323b872dd60e01b9050604051815f525f1960601c87166004525f1960601c86166024528460445260205f60645f808c5af1925060015f51148316610bad578383151615610ba1573d5f823e3d81fd5b5f883b113d1516831692505b806040525f606052505095945050505050565b5f80fd5b5f819050919050565b610bd681610bc4565b8114610be0575f80fd5b50565b5f81359050610bf181610bcd565b92915050565b5f60208284031215610c0c57610c0b610bc0565b5b5f610c1984828501610be3565b91505092915050565b5f73ffffffffffffffffffffffffffffffffffffffff82169050919050565b5f610c4b82610c22565b9050919050565b610c5b81610c41565b8114610c65575f80fd5b50565b5f81359050610c7681610c52565b92915050565b5f8060408385031215610c9257610c91610bc0565b5b5f610c9f85828601610c68565b9250506020610cb085828601610be3565b9150509250929050565b5f8115159050919050565b610cce81610cba565b82525050565b5f602082019050610ce75f830184610cc5565b92915050565b5f60208284031215610d0257610d01610bc0565b5b5f610d0f84828501610c68565b91505092915050565b610d2181610c41565b82525050565b5f602082019050610d3a5f830184610d18565b92915050565b610d4981610bc4565b82525050565b5f602082019050610d625f830184610d40565b92915050565b5f819050919050565b5f610d8b610d86610d8184610c22565b610d68565b610c22565b9050919050565b5f610d9c82610d71565b9050919050565b5f610dad82610d92565b9050919050565b610dbd81610da3565b82525050565b5f602082019050610dd65f830184610db4565b92915050565b5f604082019050610def5f830185610d40565b610dfc6020830184610d40565b9392505050565b7f4e487b71000000000000000000000000000000000000000000000000000000005f52601160045260245ffd5b5f610e3a82610bc4565b9150610e4583610bc4565b9250828201905080821115610e5d57610e5c610e03565b5b92915050565b5f610e6d82610bc4565b9150610e7883610bc4565b9250828202610e8681610bc4565b91508282048414831517610e9d57610e9c610e03565b5b5092915050565b7f4e487b71000000000000000000000000000000000000000000000000000000005f52601260045260245ffd5b5f610edb82610bc4565b9150610ee683610bc4565b925082610ef657610ef5610ea4565b5b82820490509291505056fea2646970667358221220639c38a11624df9db262438381379ca2cf8b2ff029a5498dd5fc48ec2b33e74a64736f6c63430008140033",
  "linkReferences": {},
  "deployedLinkReferences": {},
  "immutableReferences": {
    "1505": [
      {
        "length": 32,
        "start": 1472
      },
      {
        "length": 32,
        "start": 1850
      },
      {
        "length": 32,
        "start": 2260
      }
    ]
  },
  "inputSourceName": "project/contracts/RewardVault.sol",
  "buildInfoId": "solc-0_8_20-190f0a711ce72f59f1edf98aa289b4c845608725"
}